{
  "contractName": "TreasuryFactory",
  "abi": [
    {
      "inputs": [
        {
          "internalType": "address",
          "name": "_communityFactory",
          "type": "address"
        }
      ],
      "stateMutability": "nonpayable",
      "type": "constructor"
    },
    {
      "anonymous": false,
      "inputs": [
        {
          "indexed": true,
          "internalType": "address",
          "name": "newReward",
          "type": "address"
        }
      ],
      "name": "AdminAddNewRewards",
      "type": "event"
    },
    {
      "anonymous": false,
      "inputs": [
        {
          "indexed": true,
          "internalType": "address",
          "name": "reward",
          "type": "address"
        }
      ],
      "name": "AdminRemoveReward",
      "type": "event"
    },
    {
      "anonymous": false,
      "inputs": [
        {
          "indexed": true,
          "internalType": "address",
          "name": "community",
          "type": "address"
        },
        {
          "indexed": true,
          "internalType": "address",
          "name": "treasury",
          "type": "address"
        }
      ],
      "name": "NewTreasuryCreated",
      "type": "event"
    },
    {
      "anonymous": false,
      "inputs": [
        {
          "indexed": true,
          "internalType": "address",
          "name": "previousOwner",
          "type": "address"
        },
        {
          "indexed": true,
          "internalType": "address",
          "name": "newOwner",
          "type": "address"
        }
      ],
      "name": "OwnershipTransferred",
      "type": "event"
    },
    {
      "inputs": [],
      "name": "owner",
      "outputs": [
        {
          "internalType": "address",
          "name": "",
          "type": "address"
        }
      ],
      "stateMutability": "view",
      "type": "function"
    },
    {
      "inputs": [],
      "name": "renounceOwnership",
      "outputs": [],
      "stateMutability": "nonpayable",
      "type": "function"
    },
    {
      "inputs": [
        {
          "internalType": "address",
          "name": "newOwner",
          "type": "address"
        }
      ],
      "name": "transferOwnership",
      "outputs": [],
      "stateMutability": "nonpayable",
      "type": "function"
    },
    {
      "inputs": [
        {
          "internalType": "address",
          "name": "_newReward",
          "type": "address"
        }
      ],
      "name": "adminAddReward",
      "outputs": [],
      "stateMutability": "nonpayable",
      "type": "function"
    },
    {
      "inputs": [
        {
          "internalType": "address",
          "name": "_reward",
          "type": "address"
        }
      ],
      "name": "adminRemoveReward",
      "outputs": [],
      "stateMutability": "nonpayable",
      "type": "function"
    },
    {
      "inputs": [],
      "name": "getRewardList",
      "outputs": [
        {
          "internalType": "address[]",
          "name": "",
          "type": "address[]"
        }
      ],
      "stateMutability": "view",
      "type": "function"
    },
    {
      "inputs": [
        {
          "internalType": "address",
          "name": "community",
          "type": "address"
        }
      ],
      "name": "createTreasury",
      "outputs": [],
      "stateMutability": "nonpayable",
      "type": "function"
    },
    {
      "inputs": [
        {
          "internalType": "address",
          "name": "community",
          "type": "address"
        }
      ],
      "name": "treasuryOfCommunity",
      "outputs": [
        {
          "internalType": "address",
          "name": "",
          "type": "address"
        }
      ],
      "stateMutability": "view",
      "type": "function"
    }
  ],
  "bytecode": "0x60a060405234801561001057600080fd5b5060405161158b38038061158b83398101604081905261002f916100f1565b61003f61003a61009d565b6100a1565b6001600160a01b038116610088576040517f08c379a000000000000000000000000000000000000000000000000000000000815260040161007f9061011f565b60405180910390fd5b60601b6001600160601b031916608052610156565b3390565b600080546001600160a01b038381166001600160a01b0319831681178455604051919092169283917f8be0079c531659141344cd1fd0a4f28419497f9722a3daafe3b4186f6b6457e09190a35050565b600060208284031215610102578081fd5b81516001600160a01b0381168114610118578182fd5b9392505050565b6020808252600f908201527f496e76616c696420616464726573730000000000000000000000000000000000604082015260600190565b60805160601c61141761017460003960006101fb01526114176000f3fe608060405234801561001057600080fd5b50600436106100885760003560e01c80638da5cb5b1161005b5780638da5cb5b146100e8578063a416a272146100f0578063f2fde38b14610103578063fc48aaaf1461011657610088565b80634070f2671461008d578063715018a6146100b657806371b5ef46146100c057806372bdd749146100d5575b600080fd5b6100a061009b36600461089c565b610129565b6040516100ad91906108f4565b60405180910390f35b6100be610147565b005b6100c861019b565b6040516100ad9190610908565b6100be6100e336600461089c565b6101ac565b6100a061040b565b6100be6100fe36600461089c565b61041a565b6100be61011136600461089c565b6104ea565b6100be61012436600461089c565b61055b565b6001600160a01b039081166000908152600360205260409020541690565b61014f610604565b6001600160a01b031661016061040b565b6001600160a01b03161461018f5760405162461bcd60e51b815260040161018690610a52565b60405180910390fd5b6101996000610608565b565b60606101a76001610658565b905090565b6001600160a01b0381811660009081526003602052604090205416156101e45760405162461bcd60e51b8152600401610186906109f1565b604051633454a5b760e11b81526001600160a01b037f000000000000000000000000000000000000000000000000000000000000000016906368a94b6e906102309084906004016108f4565b60206040518083038186803b15801561024857600080fd5b505afa15801561025c573d6000803e3d6000fd5b505050506040513d601f19601f8201168201806040525081019061028091906108d4565b61029c5760405162461bcd60e51b8152600401610186906109c4565b336001600160a01b0316816001600160a01b0316638da5cb5b6040518163ffffffff1660e01b815260040160206040518083038186803b1580156102df57600080fd5b505afa1580156102f3573d6000803e3d6000fd5b505050506040513d601f19601f8201168201806040525081019061031791906108b8565b6001600160a01b03161461033d5760405162461bcd60e51b815260040161018690610ab6565b60008160405161034c9061088f565b61035691906108f4565b604051809103906000f080158015610372573d6000803e3d6000fd5b506001600160a01b0380841660008181526003602052604080822080549486166001600160a01b03199586168117909155600480546001810182559084527f8a35acfbc15ff81a39ae7d344fd709f28e8600b4aa8c65c6b64bfe7fe36bd19b018054909516811790945551939450919290917fb86b6766f23c854620059b70f3a6f5ec1c74547590e830c077cec2b1749a5c1d91a35050565b6000546001600160a01b031690565b610422610604565b6001600160a01b031661043361040b565b6001600160a01b0316146104595760405162461bcd60e51b815260040161018690610a52565b6001600160a01b03811661047f5760405162461bcd60e51b815260040161018690610955565b61048a60018261066c565b156104a75760405162461bcd60e51b815260040161018690610a87565b6104b260018261068a565b506040516001600160a01b038216907f18d19b23a3d14d0b98281bb9e61bd3eab1f32eb5d761d2d7d28e2fc18f8160b590600090a250565b6104f2610604565b6001600160a01b031661050361040b565b6001600160a01b0316146105295760405162461bcd60e51b815260040161018690610a52565b6001600160a01b03811661054f5760405162461bcd60e51b81526004016101869061097e565b61055881610608565b50565b610563610604565b6001600160a01b031661057461040b565b6001600160a01b03161461059a5760405162461bcd60e51b815260040161018690610a52565b6105a560018261066c565b6105c15760405162461bcd60e51b815260040161018690610a28565b6105cc60018261069f565b506040516001600160a01b038216907fe80695ecf664d9ccc0eecbf10d942b4a0f7a70d71ec749cbd75a70447fb6238390600090a250565b3390565b600080546001600160a01b038381166001600160a01b0319831681178455604051919092169283917f8be0079c531659141344cd1fd0a4f28419497f9722a3daafe3b4186f6b6457e09190a35050565b60606000610665836106b4565b9392505050565b6000610681836001600160a01b038416610710565b90505b92915050565b6000610681836001600160a01b038416610728565b6000610681836001600160a01b038416610772565b60608160000180548060200260200160405190810160405280929190818152602001828054801561070457602002820191906000526020600020905b8154815260200190600101908083116106f0575b50505050509050919050565b60009081526001919091016020526040902054151590565b60006107348383610710565b61076a57508154600181810184556000848152602080822090930184905584548482528286019093526040902091909155610684565b506000610684565b60008181526001830160205260408120548015610885576000610796600183610aed565b85549091506000906107aa90600190610aed565b905081811461082b5760008660000182815481106107d857634e487b7160e01b600052603260045260246000fd5b906000526020600020015490508087600001848154811061080957634e487b7160e01b600052603260045260246000fd5b6000918252602080832090910192909255918252600188019052604090208390555b855486908061084a57634e487b7160e01b600052603160045260246000fd5b600190038181906000526020600020016000905590558560010160008681526020019081526020016000206000905560019350505050610684565b6000915050610684565b6108bc80610b2683390190565b6000602082840312156108ad578081fd5b813561066581610b10565b6000602082840312156108c9578081fd5b815161066581610b10565b6000602082840312156108e5578081fd5b81518015158114610665578182fd5b6001600160a01b0391909116815260200190565b6020808252825182820181905260009190848201906040850190845b818110156109495783516001600160a01b031683529284019291840191600101610924565b50909695505050505050565b6020808252600f908201526e496e76616c6964206164647265737360881b604082015260600190565b60208082526026908201527f4f776e61626c653a206e6577206f776e657220697320746865207a65726f206160408201526564647265737360d01b606082015260800190565b60208082526013908201527210dbdb5b5d5b9a5d1e481b9bdd08195e1a5cdd606a1b604082015260600190565b6020808252601e908201527f436f6d6d756e6974792068617320637265617465642074726561737572790000604082015260600190565b60208082526010908201526f14995dd85c99081b9bdd08185919195960821b604082015260600190565b6020808252818101527f4f776e61626c653a2063616c6c6572206973206e6f7420746865206f776e6572604082015260600190565b60208082526015908201527414995dd85c99081a185cc81899595b881859191959605a1b604082015260600190565b6020808252601a908201527f43616c6c6572206e6f7420636f6d6d756e6974792061646d696e000000000000604082015260600190565b600082821015610b0b57634e487b7160e01b81526011600452602481fd5b500390565b6001600160a01b038116811461055857600080fdfe60c060405234801561001057600080fd5b506040516108bc3803806108bc83398101604081905261002f91610050565b600160005533606090811b6080521b6001600160601b03191660a05261007e565b600060208284031215610061578081fd5b81516001600160a01b0381168114610077578182fd5b9392505050565b60805160601c60a05160601c6108146100a86000396000607d0152600061030401526108146000f3fe608060405234801561001057600080fd5b506004361061002b5760003560e01c8063db006a7514610030575b600080fd5b61004361003e366004610669565b610045565b005b600260005414156100715760405162461bcd60e51b815260040161006890610718565b60405180910390fd5b600260008190555060007f00000000000000000000000000000000000000000000000000000000000000006001600160a01b03166399efcaec6040518163ffffffff1660e01b815260040160206040518083038186803b1580156100d457600080fd5b505afa1580156100e8573d6000803e3d6000fd5b505050506040513d601f19601f8201168201806040525081019061010c919061056e565b905081816001600160a01b03166370a08231336040518263ffffffff1660e01b815260040161013b9190610699565b60206040518083038186803b15801561015357600080fd5b505afa158015610167573d6000803e3d6000fd5b505050506040513d601f19601f8201168201806040525081019061018b9190610681565b10156101a95760405162461bcd60e51b8152600401610068906106ea565b6000816001600160a01b03166318160ddd6040518163ffffffff1660e01b815260040160206040518083038186803b1580156101e457600080fd5b505afa1580156101f8573d6000803e3d6000fd5b505050506040513d601f19601f8201168201806040525081019061021c9190610681565b6040516323b872dd60e01b81529091506001600160a01b038316906323b872dd9061024f903390309088906004016106ad565b602060405180830381600087803b15801561026957600080fd5b505af115801561027d573d6000803e3d6000fd5b505050506040513d601f19601f820116820180604052508101906102a19190610649565b50604051630852cd8d60e31b81526001600160a01b038316906342966c68906102ce90869060040161074f565b600060405180830381600087803b1580156102e857600080fd5b505af11580156102fc573d6000803e3d6000fd5b5050505060007f00000000000000000000000000000000000000000000000000000000000000006001600160a01b03166371b5ef466040518163ffffffff1660e01b815260040160006040518083038186803b15801561035b57600080fd5b505afa15801561036f573d6000803e3d6000fd5b505050506040513d6000823e601f3d908101601f191682016040526103979190810190610588565b905060005b81518110156104fa5760008282815181106103c757634e487b7160e01b600052603260045260246000fd5b602002602001015190506000816001600160a01b03166370a08231306040518263ffffffff1660e01b81526004016103ff9190610699565b60206040518083038186803b15801561041757600080fd5b505afa15801561042b573d6000803e3d6000fd5b505050506040513d601f19601f8201168201806040525081019061044f9190610681565b90506001600160a01b03821663a9059cbb336104758861046f8c87610533565b90610546565b6040518363ffffffff1660e01b81526004016104929291906106d1565b602060405180830381600087803b1580156104ac57600080fd5b505af11580156104c0573d6000803e3d6000fd5b505050506040513d601f19601f820116820180604052508101906104e49190610649565b50505080806104f290610797565b91505061039c565b50604051849033907f222838db2794d11532d940e8dec38ae307ed0b63cd97c233322e221f998767a690600090a3505060016000555050565b600061053f8284610778565b9392505050565b600061053f8284610758565b80516001600160a01b038116811461056957600080fd5b919050565b60006020828403121561057f578081fd5b61053f82610552565b6000602080838503121561059a578182fd5b825167ffffffffffffffff808211156105b1578384fd5b818501915085601f8301126105c4578384fd5b8151818111156105d6576105d66107c8565b838102604051858282010181811085821117156105f5576105f56107c8565b604052828152858101935084860182860187018a1015610613578788fd5b8795505b8386101561063c5761062881610552565b855260019590950194938601938601610617565b5098975050505050505050565b60006020828403121561065a578081fd5b8151801515811461053f578182fd5b60006020828403121561067a578081fd5b5035919050565b600060208284031215610692578081fd5b5051919050565b6001600160a01b0391909116815260200190565b6001600160a01b039384168152919092166020820152604081019190915260600190565b6001600160a01b03929092168252602082015260400190565b602080825260149082015273496e73756666696369656e742062616c616e636560601b604082015260600190565b6020808252601f908201527f5265656e7472616e637947756172643a207265656e7472616e742063616c6c00604082015260600190565b90815260200190565b60008261077357634e487b7160e01b81526012600452602481fd5b500490565b6000816000190483118215151615610792576107926107b2565b500290565b60006000198214156107ab576107ab6107b2565b5060010190565b634e487b7160e01b600052601160045260246000fd5b634e487b7160e01b600052604160045260246000fdfea2646970667358221220274e39c1d97bd522cd6e960b276dac16b1171b077e6bc53a66eb105694d0754964736f6c63430008000033a26469706673582212209ccf4f8d37b29673d180fff7fe5dafb8bb6b1b09da8dbf320e3f6d65f43e101464736f6c63430008000033",
  "immutableReferences": {
    "2036": [
      {
        "length": 32,
        "start": 507
      }
    ]
  },
  "source": "// SPDX-License-Identifier: MIT\n\npragma solidity 0.8.0;\npragma experimental ABIEncoderV2;\n\nimport \"@openzeppelin/contracts/utils/math/SafeMath.sol\";\nimport \"@openzeppelin/contracts/access/Ownable.sol\";\nimport \"@openzeppelin/contracts/security/ReentrancyGuard.sol\";\nimport \"./Treasury.sol\";\nimport \"../CommunityFactory.sol\";\nimport \"@openzeppelin/contracts/token/ERC20/IERC20.sol\";\nimport \"@openzeppelin/contracts/utils/structs/EnumerableSet.sol\";\n\ncontract TreasuryFactory is Ownable {\n\n    using EnumerableSet for EnumerableSet.AddressSet;\n\n    EnumerableSet.AddressSet private rewardsList;\n\n    address immutable communityFactory;\n\n    // community => created treasury\n    mapping(address => address) communityCreatedTreasury;\n\n    address[] private createdTreasury;\n\n    event AdminAddNewRewards(address indexed newReward);\n    event AdminRemoveReward(address indexed reward);\n    event NewTreasuryCreated(address indexed community, address indexed treasury);\n\n    constructor(address _communityFactory) {\n        require(_communityFactory != address(0), \"Invalid address\");\n        communityFactory = _communityFactory;\n    }\n\n    function adminAddReward(address _newReward) external onlyOwner {\n        require(_newReward != address(0), \"Invalid address\");\n        require(!rewardsList.contains(_newReward), \"Reward has been added\");\n        rewardsList.add(_newReward);\n        emit AdminAddNewRewards(_newReward);\n    }\n\n    function adminRemoveReward(address _reward) external onlyOwner {\n        require(rewardsList.contains(_reward), \"Reward not added\");\n        rewardsList.remove(_reward);\n        emit AdminRemoveReward(_reward);\n    }\n\n    function getRewardList() public view returns (address[] memory) {\n        return rewardsList.values();\n    }\n\n    function createTreasury(address community) external {\n        require(communityCreatedTreasury[community] == address(0), \"Community has created treasury\");\n        require(CommunityFactory(communityFactory).createdCommunity(community), \"Community not exist\");\n        require(Ownable(community).owner() == msg.sender, \"Caller not community admin\");\n        Treasury t = new Treasury(community);\n        communityCreatedTreasury[community] = address(t);\n        createdTreasury.push(address(t));\n        emit NewTreasuryCreated(community, address(t));\n    }\n\n    function treasuryOfCommunity(address community) public view returns (address) {\n        return communityCreatedTreasury[community];\n    }\n\n\n}",
  "sourcePath": "/Users/wangxi/work/Walnut-V2/nutbox-contract/contracts/Treasury/TreasuryFactory.sol",
  "compiler": {
    "name": "solc",
    "version": "0.8.0+commit.c7dfd78e.Emscripten.clang"
  },
  "schemaVersion": "3.3.4",
  "updatedAt": "2022-05-05T05:41:54.826Z",
  "devdoc": {
    "kind": "dev",
    "methods": {
      "owner()": {
        "details": "Returns the address of the current owner."
      },
      "renounceOwnership()": {
        "details": "Leaves the contract without owner. It will not be possible to call `onlyOwner` functions anymore. Can only be called by the current owner. NOTE: Renouncing ownership will leave the contract without an owner, thereby removing any functionality that is only available to the owner."
      },
      "transferOwnership(address)": {
        "details": "Transfers ownership of the contract to a new account (`newOwner`). Can only be called by the current owner."
      }
    },
    "version": 1
  },
  "userdoc": {
    "kind": "user",
    "methods": {},
    "version": 1
  }
}