{
  "contractName": "Treasury",
  "abi": [
    {
      "inputs": [
        {
          "internalType": "address",
          "name": "_community",
          "type": "address"
        }
      ],
      "stateMutability": "nonpayable",
      "type": "constructor"
    },
    {
      "anonymous": false,
      "inputs": [
        {
          "indexed": true,
          "internalType": "address",
          "name": "user",
          "type": "address"
        },
        {
          "indexed": true,
          "internalType": "uint256",
          "name": "amount",
          "type": "uint256"
        }
      ],
      "name": "Redeem",
      "type": "event"
    },
    {
      "inputs": [
        {
          "internalType": "uint256",
          "name": "amount",
          "type": "uint256"
        }
      ],
      "name": "redeem",
      "outputs": [],
      "stateMutability": "nonpayable",
      "type": "function"
    }
  ],
  "bytecode": "0x60c060405234801561001057600080fd5b506040516108bc3803806108bc83398101604081905261002f91610050565b600160005533606090811b6080521b6001600160601b03191660a05261007e565b600060208284031215610061578081fd5b81516001600160a01b0381168114610077578182fd5b9392505050565b60805160601c60a05160601c6108146100a86000396000607d0152600061030401526108146000f3fe608060405234801561001057600080fd5b506004361061002b5760003560e01c8063db006a7514610030575b600080fd5b61004361003e366004610669565b610045565b005b600260005414156100715760405162461bcd60e51b815260040161006890610718565b60405180910390fd5b600260008190555060007f00000000000000000000000000000000000000000000000000000000000000006001600160a01b03166399efcaec6040518163ffffffff1660e01b815260040160206040518083038186803b1580156100d457600080fd5b505afa1580156100e8573d6000803e3d6000fd5b505050506040513d601f19601f8201168201806040525081019061010c919061056e565b905081816001600160a01b03166370a08231336040518263ffffffff1660e01b815260040161013b9190610699565b60206040518083038186803b15801561015357600080fd5b505afa158015610167573d6000803e3d6000fd5b505050506040513d601f19601f8201168201806040525081019061018b9190610681565b10156101a95760405162461bcd60e51b8152600401610068906106ea565b6000816001600160a01b03166318160ddd6040518163ffffffff1660e01b815260040160206040518083038186803b1580156101e457600080fd5b505afa1580156101f8573d6000803e3d6000fd5b505050506040513d601f19601f8201168201806040525081019061021c9190610681565b6040516323b872dd60e01b81529091506001600160a01b038316906323b872dd9061024f903390309088906004016106ad565b602060405180830381600087803b15801561026957600080fd5b505af115801561027d573d6000803e3d6000fd5b505050506040513d601f19601f820116820180604052508101906102a19190610649565b50604051630852cd8d60e31b81526001600160a01b038316906342966c68906102ce90869060040161074f565b600060405180830381600087803b1580156102e857600080fd5b505af11580156102fc573d6000803e3d6000fd5b5050505060007f00000000000000000000000000000000000000000000000000000000000000006001600160a01b03166371b5ef466040518163ffffffff1660e01b815260040160006040518083038186803b15801561035b57600080fd5b505afa15801561036f573d6000803e3d6000fd5b505050506040513d6000823e601f3d908101601f191682016040526103979190810190610588565b905060005b81518110156104fa5760008282815181106103c757634e487b7160e01b600052603260045260246000fd5b602002602001015190506000816001600160a01b03166370a08231306040518263ffffffff1660e01b81526004016103ff9190610699565b60206040518083038186803b15801561041757600080fd5b505afa15801561042b573d6000803e3d6000fd5b505050506040513d601f19601f8201168201806040525081019061044f9190610681565b90506001600160a01b03821663a9059cbb336104758861046f8c87610533565b90610546565b6040518363ffffffff1660e01b81526004016104929291906106d1565b602060405180830381600087803b1580156104ac57600080fd5b505af11580156104c0573d6000803e3d6000fd5b505050506040513d601f19601f820116820180604052508101906104e49190610649565b50505080806104f290610797565b91505061039c565b50604051849033907f222838db2794d11532d940e8dec38ae307ed0b63cd97c233322e221f998767a690600090a3505060016000555050565b600061053f8284610778565b9392505050565b600061053f8284610758565b80516001600160a01b038116811461056957600080fd5b919050565b60006020828403121561057f578081fd5b61053f82610552565b6000602080838503121561059a578182fd5b825167ffffffffffffffff808211156105b1578384fd5b818501915085601f8301126105c4578384fd5b8151818111156105d6576105d66107c8565b838102604051858282010181811085821117156105f5576105f56107c8565b604052828152858101935084860182860187018a1015610613578788fd5b8795505b8386101561063c5761062881610552565b855260019590950194938601938601610617565b5098975050505050505050565b60006020828403121561065a578081fd5b8151801515811461053f578182fd5b60006020828403121561067a578081fd5b5035919050565b600060208284031215610692578081fd5b5051919050565b6001600160a01b0391909116815260200190565b6001600160a01b039384168152919092166020820152604081019190915260600190565b6001600160a01b03929092168252602082015260400190565b602080825260149082015273496e73756666696369656e742062616c616e636560601b604082015260600190565b6020808252601f908201527f5265656e7472616e637947756172643a207265656e7472616e742063616c6c00604082015260600190565b90815260200190565b60008261077357634e487b7160e01b81526012600452602481fd5b500490565b6000816000190483118215151615610792576107926107b2565b500290565b60006000198214156107ab576107ab6107b2565b5060010190565b634e487b7160e01b600052601160045260246000fd5b634e487b7160e01b600052604160045260246000fdfea26469706673582212200548f29cab15cd0dce80775b5b27945046235402ff735f1023f80a69d3d96d0064736f6c63430008000033",
  "immutableReferences": {
    "1874": [
      {
        "length": 32,
        "start": 772
      }
    ],
    "1876": [
      {
        "length": 32,
        "start": 125
      }
    ]
  },
  "source": "// SPDX-License-Identifier: MIT\n\npragma solidity 0.8.0;\npragma experimental ABIEncoderV2;\n\nimport \"@openzeppelin/contracts/utils/math/SafeMath.sol\";\nimport \"@openzeppelin/contracts/access/Ownable.sol\";\nimport \"@openzeppelin/contracts/security/ReentrancyGuard.sol\";\nimport \"./TreasuryFactory.sol\";\nimport \"../interfaces/ICommunity.sol\";\nimport \"@openzeppelin/contracts/token/ERC20/extensions/ERC20Burnable.sol\";\n\ncontract Treasury is ReentrancyGuard {\n    using SafeMath for uint256;\n    address immutable factory;\n    address immutable community;\n\n    event Redeem(address indexed user, uint256 indexed amount);\n\n    constructor(address _community) {\n        // we only admit the caller is TreasuryFactory registered by committee\n        factory = msg.sender;\n        community = _community;\n    }\n\n    function redeem(uint256 amount) external nonReentrant {\n        ERC20Burnable ctoken = ERC20Burnable(ICommunity(community).getCommunityToken());\n        require(ctoken.balanceOf(msg.sender) >= amount, \"Insufficient balance\");\n        uint256 supply = ctoken.totalSupply();\n        ctoken.transferFrom(msg.sender, address(this), amount);\n        ctoken.burn(amount);\n        address[] memory rewardList = TreasuryFactory(factory).getRewardList();\n        for (uint256 i = 0; i < rewardList.length; i++) {\n            ERC20Burnable token = ERC20Burnable(rewardList[i]);\n            uint256 balance = token.balanceOf(address(this));\n            token.transfer(msg.sender, amount.mul(balance).div(supply));\n        }\n\n        emit Redeem(msg.sender, amount);\n    }\n    \n\n\n\n}",
  "sourcePath": "/Users/wangxi/work/Walnut-V2/nutbox-contract/contracts/Treasury/Treasury.sol",
  "compiler": {
    "name": "solc",
    "version": "0.8.0+commit.c7dfd78e.Emscripten.clang"
  },
  "schemaVersion": "3.3.4",
  "updatedAt": "2022-05-05T03:21:33.997Z",
  "devdoc": {
    "kind": "dev",
    "methods": {},
    "version": 1
  },
  "userdoc": {
    "kind": "user",
    "methods": {},
    "version": 1
  }
}